:020000040800F2
:1000000000000A20B9ED0008ED840008EF84000824
:10001000F1840008F3840008F584000809EE000864
:10002000000000000000000000000000F1CD00080A
:10003000F78400080000000081CD000899E900085D
:1000400009EE000809EE000809EE000809EE0008B4
:1000500009EE000809EE000809EE000809EE0008A4
:1000600009EE000809EE000809EE000809EE000894
:1000700009EE000809EE000809EE000809EE000884
:10008000F984000809EE000809EE000809EE0008EE
:1000900009EE000809EE000809EE000809EE000864
:1000A000FF84000809EE000809EE000809EE0008C8
:1000B00009EE000809EE000809EE000809EE000844
:1000C00009EE00080985000809EE000809EE00089D
:1000D0000000000009EE000809EE000809EE000823
:1000E00009EE000809EE000809EE000809EE000814
:1000F00009EE000809EE000809EE000809EE000804
:1001000009EE00081585000809EE000809EE000850
:1001100009EE000809EE000809EE000809EE0008E3
:1001200009EE000809EE000809EE000809EE0008D3
:1001300009EE000809EE000809EE000809EE0008C3
:1001400009EE000809EE000809EE000809EE0008B3
:1001500009EE000809EE000809EE000809EE0008A3
:1001600009EE000809EE000809EE000809EE000893
:1001700009EE000809EE000809EE000809EE000883
:1001800009EE000809EE000809EE000809EE000873
:1001900009EE000809EE000809EE000809EE000863
:1001A00009EE000809EE000809EE000809EE000853
:1001B00009EE000809EE000809EE000809EE000843
:1001C00009EE000809EE000809EE000809EE000833
:1001D00009EE000809EE000809EE000809EE000823
:1001E00009EE000809EE000809EE000809EE000813
:1001F00009EE000809EE000809EE000809EE000803
:1002000009EE000809EE000809EE000800000000F1
:100210000000000009EE00080000000009EE0008E0
:1002200009EE000809EE000809EE000809EE0008D2
:1002300009EE000809EE000809EE000809EE0008C2
:0C02400009EE000809EE000809EE0008B5
:1002500010B5054C237833B9044B13B1044800E0C2
:1002600000BF0123237010BD200300200000000008
:1002700028CB020808B5034B1BB10349034800E033
:1002800000BF08BD000000002403002028CB0208A6
:1002900081F0004102E000BF83F0004330B54FEA37
:1002A00041044FEA430594EA050F08BF90EA020FA4
:1002B0001FBF54EA000C55EA020C7FEA645C7FEA37
:1002C000655C00F0E2804FEA5454D4EB5555B8BF5A
:1002D0006D420CDD2C4480EA020281EA030382EACB
:1002E000000083EA010180EA020281EA0303362D5D
:1002F00088BF30BD11F0004F4FEA01314FF4801C30
:100300004CEA113102D0404261EB410113F0004F41
:100310004FEA03334CEA133302D0524263EB4303F8
:1003200094EA050F00F0A780A4F10104D5F1200E96
:100330000DDB02FA0EFC22FA05F2801841F10001F1
:1003400003FA0EF2801843FA05F359410EE0A5F1C5
:1003500020050EF1200E012A03FA0EFC28BF4CF0F6
:10036000020C43FA05F3C01851EBE37101F00045AC
:1003700007D54FF0000EDCF1000C7EEB00006EEBB9
:100380000101B1F5801F1BD3B1F5001F0CD3490843
:100390005FEA30004FEA3C0C04F101044FEA44529A
:1003A00012F5800F80F09A80BCF1004F08BF5FEA21
:1003B000500C50F1000041EB045141EA050130BD01
:1003C0005FEA4C0C404141EB010111F4801FA4F1A4
:1003D0000104E9D191F0000F04BF01460020B1FAF9
:1003E00081F308BF2033A3F10B03B3F120020CDA31
:1003F0000C3208DD02F1140CC2F10C0201FA0CF00F
:1004000021FA02F10CE002F11402D8BFC2F1200C73
:1004100001FA02F120FA0CFCDCBF41EA0C01904029
:10042000E41AA2BF01EB0451294330BD6FEA040472
:100430001F3C1CDA0C340EDC04F11404C4F120025D
:1004400020FA04F001FA02F340EA030021FA04F36F
:1004500045EA030130BDC4F10C04C4F1200220FAC6
:1004600002F001FA04F340EA0300294630BD21FA04
:1004700004F0294630BD94F0000F83F4801306BFCA
:1004800081F480110134013D4EE77FEA645C18BFBE
:100490007FEA655C29D094EA050F08BF90EA020F55
:1004A00005D054EA000C04BF1946104630BD91EA4D
:1004B000030F1EBF0021002030BD5FEA545C05D150
:1004C0004000494128BF41F0004130BD14F580048F
:1004D0003CBF01F5801130BD01F0004545F0FE4103
:1004E00041F470014FF0000030BD7FEA645C1ABF38
:1004F000194610467FEA655C1CBF0B46024650EA6F
:10050000013406BF52EA033591EA030F41F400219A
:1005100030BD00BF90F0000F04BF0021704730B520
:100520004FF4806404F132044FF000054FF00001F5
:1005300050E700BF90F0000F04BF0021704730B5B6
:100540004FF4806404F1320410F0004548BF40428B
:100550004FF000013EE700BF42004FEAE2014FEAE0
:1005600031014FEA02701FBF12F07F4393F07F4FBB
:1005700081F06051704732F07F4208BF704793F0BE
:100580007F4F04BF41F40021704730B54FF46074D1
:1005900001F0004521F000411CE700BF50EA0102D4
:1005A00008BF704730B54FF000050AE050EA01027D
:1005B00008BF704730B511F0004502D5404261EBED
:1005C00041014FF4806404F132045FEA915C3FF42E
:1005D000D8AE4FF003025FEADC0C18BF03325FEACB
:1005E000DC0C18BF033202EBDC02C2F1200300FA7C
:1005F00003FC20FA02F001FA03FE40EA0E0021FAA1
:1006000002F11444BDE600BF70B54FF0FF0C4CF48E
:10061000E06C1CEA11541DBF1CEA135594EA0C0F40
:1006200095EA0C0F00F0DEF82C4481EA030621EA7B
:100630004C5123EA4C5350EA013518BF52EA0335B6
:1006400041F4801143F4801338D0A0FB02CE4FF068
:100650000005E1FB02E506F00042E0FB03E54FF098
:100660000006E1FB03569CF0000F18BF4EF0010E90
:10067000A4F1FF04B6F5007F64F5407404D25FEA8C
:100680004E0E6D4146EB060642EAC62141EA55513F
:100690004FEAC52040EA5E504FEACE2EB4F1FD0C81
:1006A00088BFBCF5E06F1ED8BEF1004F08BF5FEAFF
:1006B000500E50F1000041EB045170BD06F00046B1
:1006C00046EA010140EA020081EA0301B4EB5C045E
:1006D000C2BFD4EB0C0541EA045170BD41F4801156
:1006E0004FF0000E013C00F3AB8014F1360FDEBF7B
:1006F000002001F0004170BDC4F10004203C35DA57
:100700000C341BDC04F11404C4F1200500FA05F3D9
:1007100020FA04F001FA05F240EA020001F000427A
:1007200021F0004110EBD37021FA04F642EB0601F0
:100730005EEA430E08BF20EAD37070BDC4F10C041A
:10074000C4F1200500FA04F320FA05F001FA04F2DE
:1007500040EA020001F0004110EBD37041F10001CA
:100760005EEA430E08BF20EAD37070BDC4F12005D5
:1007700000FA05F24EEA020E20FA04F301FA05F23D
:1007800043EA020321FA04F001F0004121FA04F2E5
:1007900020EA020000EBD3705EEA430E08BF20EAB5
:1007A000D37070BD94F0000F0FD101F000464000EF
:1007B00041EB010111F4801F08BF013CF7D041EA71
:1007C000060195F0000F18BF704703F00046520075
:1007D00043EB030313F4801F08BF013DF7D043EA46
:1007E0000603704794EA0C0F0CEA135518BF95EAFC
:1007F0000C0F0CD050EA410618BF52EA4306D1D183
:1008000081EA030101F000414FF0000070BD50EAA1
:10081000410606BF1046194652EA430619D094EA2B
:100820000C0F02D150EA013613D195EA0C0F05D115
:1008300052EA03361CBF104619460AD181EA030169
:1008400001F0004141F0FE4141F470014FF0000021
:1008500070BD41F0FE4141F4780170BD70B54FF0BC
:10086000FF0C4CF4E06C1CEA11541DBF1CEA13553C
:1008700094EA0C0F95EA0C0F00F0A7F8A4EB05041E
:1008800081EA030E52EA03354FEA013100F0888015
:100890004FEA03334FF0805545EA131343EA1263DE
:1008A0004FEA022245EA111545EA10654FEA002693
:1008B0000EF000419D4208BF964244F1FD0404F54C
:1008C000407402D25B084FEA3202B61A65EB0305A8
:1008D0005B084FEA32024FF480104FF4002CB6EB65
:1008E000020E75EB030E22BFB61A754640EA0C00E5
:1008F0005B084FEA3202B6EB020E75EB030E22BF25
:10090000B61A754640EA5C005B084FEA3202B6EB65
:10091000020E75EB030E22BFB61A754640EA9C0024
:100920005B084FEA3202B6EB020E75EB030E22BFF4
:10093000B61A754640EADC0055EA060E18D04FEAB2
:10094000051545EA16754FEA06164FEAC30343EA52
:1009500052734FEAC2025FEA1C1CC0D111F4801F1F
:100960000BD141EA00014FF000004FF0004CB6E718
:1009700011F4801F04BF01430020B4F1FD0C88BFB7
:10098000BCF5E06F3FF6AFAEB5EB030C04BFB6EBC2
:10099000020C5FEA500C50F1000041EB045170BDB5
:1009A0000EF0004E4EEA113114EB5C04C2BFD4EBE2
:1009B0000C0541EA045170BD41F480114FF0000E66
:1009C000013C90E645EA060E8DE60CEA135594EAE2
:1009D0000C0F08BF95EA0C0F3FF43BAF94EA0C0FE5
:1009E0000AD150EA01347FF434AF95EA0C0F7FF45A
:1009F00025AF104619462CE795EA0C0F06D152EAAE
:100A000003353FF4FDAE1046194622E750EA410691
:100A100018BF52EA43067FF4C5AE50EA41047FF4A2
:100A20000DAF52EA43057FF4EBAE12E74FEA410205
:100A3000B2F1E04324BFB3F5001CDCF1FE5C0DD93C
:100A400001F0004C4FEAC0024CEA5070B2F1004F86
:100A500040EB830008BF20F00100704711F0804F89
:100A600021D113F13872BCBF01F00040704741F44E
:100A700080114FEA5252C2F11802C2F1200C10FA52
:100A80000CF320FA02F018BF40F001004FEAC12336
:100A90004FEAD32303FA0CFC40EA0C0023FA02F3DA
:100AA0004FEA4303CCE77FEA625307D150EA0133B0
:100AB0001EBF4FF0FE4040F44000704701F0004080
:100AC00040F0FE4040F40000704700BF7BB972B9AF
:100AD0000029BEBF00204FF0004106E008BF0028FB
:100AE0001CBF6FF000414FF0FF3000F0AFB9ADF127
:100AF000080C6DE904CE002909DB002B1ADB00F09D
:100B000035F8DDF804E0DDE9022304B07047404227
:100B100061EB4101002B1BDB00F028F8DDF804E05D
:100B2000DDE9022304B0404261EB4101524263EB34
:100B300043037047524263EB430300F017F8DDF8BC
:100B400004E0DDE9022304B0404261EB410170475B
:100B5000524263EB430300F009F8DDF804E0DDE9FD
:100B6000022304B0524263EB430370472DE9F04780
:100B70008C46089D04468A46002B4AD18A42174675
:100B800062D9B2FA82F64EB1C6F1200E01FA06F32E
:100B9000B740B44020FA0EFE4EEA030A4FEA174867
:100BA000230C1FFA87F9BAFBF8FE08FB1EAA0EFBFE
:100BB00009F243EA0A439A420BD9FB180EF1FF31BE
:100BC0002CBF012000209A4202D9002800F02A817F
:100BD0008E469A1AA3B2B2FBF8F008FB102200FB73
:100BE00009F943EA0244A14507D93C1900F1FF3352
:100BF00002D2A14500F210811846A4EB090440EA94
:100C00000E4000211DB1F4400023C5E90043BDE8BA
:100C1000F0878B4208D9002D00F0F2800021C5E951
:100C2000000C0846BDE8F087B3FA83F100294ED1E5
:100C30006345C0F0E880824240F2E5800846002D1E
:100C4000E5D0C5E9004AE2E702B9FFDEB2FA82F672
:100C5000002E40F099808B1A4FEA124E1FFA82F84C
:100C600001214FEA144CB3FBFEF20EFB123008FBDD
:100C700002F94CEA004CE14508D917EB0C0C02F1E3
:100C8000FF3302D2E14500F2CA801A46ACEB090CF0
:100C9000A3B2BCFBFEF00EFB10CC08FB00F843EA4D
:100CA0000C44A0450ED93C1900F1FF332CBF4FF086
:100CB000010C4FF0000CA04503D9BCF1000F00F06F
:100CC000A8801846A4EB080440EA02409AE7C1F164
:100CD00020048B4002FA01FE0CFA01F6E24020FAF1
:100CE00004F72CFA04FC00FA01F813433E431F0CEE
:100CF000320C1FFA83F9BCFBF7F007FB10CC00FBAA
:100D000009FA42EA0C4CE24508D913EB0C0C00F14D
:100D1000FF3202D2E24500F289801046ACEB0A0CA9
:100D2000B6B2BCFBF7FA07FB1ACC0AFB09F946EA94
:100D30000C42914506D99A180AF1FF3601D2914525
:100D40007AD8B2464AEA0040A2EB0902A0FB0E673D
:100D5000BA42B446B94602D307D1B04505D2B6EB84
:100D60000E0C67EB030301389946002D6BD0B8EBEE
:100D70000C0362EB090202FA04F4CB40CA400021E2
:100D80001C43C5E9004242E7B740C6F1200201FA20
:100D900006F3B44021FA02FC4FEA174E20FA02F2A1
:100DA0001FFA87F8BCFBFEF11A430EFB11CC01FBC6
:100DB00008F0130C43EA0C4C604507D917EB0C0CF8
:100DC00001F1FF3301D2604533D81946ACEB000C7A
:100DD00092B2BCFBFEF00EFB10CC00FB08F342EA23
:100DE0000C4C634507D917EB0C0C00F1FF3201D214
:100DF000634525D81046ACEB030340EA014130E7D8
:100E00002946284603E7841A6CEB030301209A461F
:100E100015E702383C4455E702383C44EDE6023A17
:100E2000BC4433E7AEF1020E3B44D2E602389C44A8
:100E300074E70239BC44C9E7AAF1020A1A4481E7FF
:100E40000238BC44D7E72946E1E600BF704700BF3F
:100E5000704770477047704710B50446024B0360F7
:100E600000F098FF204610BD88CB020810B504465C
:100E7000FFF7F2FF20466C2129F0B8FD204610BD97
:100E800010B5044600F090FF014B2046236010BDD2
:100E900088CB020800F07FBF704704387047704766
:100EA00010B50446102129F0A1FD204610BDA0F187
:100EB0000400F5E7002210B58260044AC16002F127
:100EC000080420320460426010BD00BFB4CB0208A9
:100ED0007047000010B50446024B036000F0A8FF05
:100EE000204610BDE4CB020810B50446FFF7F2FF20
:100EF00020464FF4C07129F079FD204610BD000056
:100F000010B5044601F08CF8014B2046236010BD5B
:100F1000E4CB020800F08DBF70470438704770477B
:100F200010B50446102129F061FD204610BDA0F146
:100F30000400F5E7002210B58260044AC16002F1A6
:100F4000080420320460426010BD00BF10CC0208CB
:100F500090F8252012B103685B69184770478180BB
:100F600070470181704741817047704770477047F3
:100F700070477047C38810B4D21A838812B2C91A56
:100F8000036809B25B6D5DF8044B1847806A7047CF
:100F90007047000038B505460223E980B0F90A0021
:100FA0000C4690FBF3F0A1F1A003184410FB00F0F5
:100FB000C0F53D40103007EE900AF8EEE77A17EEE4
:100FC000900A29F0B3FDDFED0F7A07EE100A77EEF5
:100FD000C77AB6EE007A77EE877AFDEEE77A17EEFB
:100FE000903A2B864FF4A0732834C4EB042494FB6E
:100FF000F3F37F3B002BB8BF5B42C3F1FF0385F8DF
:10100000623038BD00005C4310B50446082129F069
:10101000EDFC204610BD000010B50446024B0360F5
:1010200001F094FA204610BD50CC020810B50446D9
:10103000FFF7F2FF2046742129F0D8FC204610BDAE
:1010400010B5044601F08CFA014B2046236010BD18
:1010500050CC020807B521B101290CD003B05DF8CE
:1010600004FB074B0093132369462C30ADF8043082
:1010700013F01EFDF2E7024B00931223F4E700BFCA
:1010800040CC020801F063BA38B505460223E98076
:10109000B0F90A000C4690FBF3F0A1F1A00318444C
:1010A00010FB00F0C0F53D40103007EE900AF8EE5E
:1010B000E77A17EE900A29F039FDDFED0F7A07EE97
:1010C000100A77EEC77AB6EE007A77EE877AFDEEF1
:1010D000E77A17EE903A2B864FF4A0732834C4EBCE
:1010E000042494FBF3F37F3B002BB8BF5B42C3F1B6
:1010F000FF0385F8623038BD00005C4310B504463C
:10110000024B036001F0A6FA204610BDE4CC0208B1
:1011100010B50446FFF7F2FF2046742129F066FC63
:10112000204610BD10B5044601F09EFA014B204642
:10113000236010BDE4CC020807B506290ED8DFE80D
:1011400001F0041014181C202400124B00932423D7
:1011500069462C30ADF8043013F0AAFC03B05DF8FA
:1011600004FB0C4B00932323F2E70A4B009322234A
:10117000EEE7084B00932123EAE7064B0093202378
:10118000E6E7044B00931F23E2E7024B00931E2384
:10119000DEE700BF40CC020801F05DBA10B504469E
:1011A000024B036001F058F8204610BD78CD0208CC
:1011B00010B50446FFF7F2FF2046742129F016FC13
:1011C000204610BD10B5044601F050F8014B2046F2
:1011D000236010BD78CD0208024B2C30036317F05A
:1011E00045BD00BFE6B43CFF024B2C30036317F053
:1011F0003DBD00BFC5C5CBFF282910B5C180044641
:1012000012D1FFF7E9FF7822B4F906301433C3EBAB
:10121000032393FBF2F37F3B002BB8BF5B42C3F188
:10122000FF0384F8623010BDFFF7DEFFEBE700003C
:10123000012907B50ED0022910D041B9094B0093FE
:10124000052369462C30ADF8043013F031FC03B0AF
:101250005DF804FB034B00930423F2E7014B00937A
:101260000323EEE740CC020800F0F7BF10B50446B8
:10127000024B036001F06EF8204610BD0CCE020850
:1012800010B50446FFF7F2FF2046742129F0AEFBAB
:10129000204610BD10B5044601F066F8014B20460B
:1012A000236010BD0CCE0208024B2C30036317F0F4
:1012B000DDBC00BFE6B43CFF024B2C30036317F0EB
:1012C000D5BC00BFC5C5CBFF282910B5C1800446D9
:1012D00012D1FFF7E9FF7822B4F906301433C3EBDB
:1012E000032393FBF2F37F3B002BB8BF5B42C3F1B8
:1012F000FF0384F8623010BDFFF7DEFFEBE700006C
:1013000007B521B101290CD003B05DF804FB074BF0
:1013100000930223ADF8043069462C3013F0C8FB6B
:10132000F2E7024BADF804100093F5E740CC020859
:1013300001F011B810B50446024B036001F088F8C3
:10134000204610BDA0CE020810B50446FFF7F2FFFC
:101350002046742129F04AFB204610BD10B50446F2
:1013600001F080F8014B2046236010BDA0CE02089A
:10137000024B2C30036317F079BC00BFE6B43CFF8E
:10138000024B2C30036317F071BC00BFC5C5CBFF07
:10139000282910B5C180044612D1FFF7E9FF782251
:1013A000B4F906301433C3EB032393FBF2F37F3B12
:1013B000002BB8BF5B42C3F1FF0384F8623010BD5D
:1013C000FFF7DEFFEBE7000007B509290FD8DFE8DC
:1013D00001F0051115191D2125292D31174B0093F9
:1013E0000F2369462C30ADF8043013F061FB03B0D5
:1013F0005DF804FB114B00930E23F2E70F4B0093B3
:101400000D23EEE70D4B00930C23EAE70B4B009303
:101410000B23E6E7094B00930A23E2E7074B00930F
:101420000923DEE7054B00930823DAE7034B00931B
:101430000723D6E7014B00930623D2E740CC0208EE
:1014400001F007B87047000010B50446024B036076
:1014500001F084F9204610BD34CF020810B50446CF
:10146000FFF7F2FF20464FF42D7129F0BFFA204616
:1014700010BD000010B5044601F020FA014B2046D3
:10148000236010BD34CF020801F069B970470438F9
:101490007047704710B50446102129F0A7FA20467E
:1014A00010BDA0F10400F5E7002210B58260044AE7
:1014B000C16002F1080420320460426010BD00BF28
:1014C00060CF02087047000010B50446024B03606D
:1014D00001F0E8FB204610BD90CF020810B504468D
:1014E000FFF7F2FF20464FF4FB5129F07FFA204628
:1014F00010BD000010B5044601F06EFC034B012244
:10150000236041F65C732046E25410BD90CF020880
:1015100001F0A4BBF0B500F5AA7785B004463846C3
:101520000DF0BDFD05466A4601A938460DF0ADFD3A
:10153000019B41F65C72AB420CD10123A35441F6EE
:101540005C73E35C03B10135294638460DF0DFFCDE
:1015500005B0F0BD009BAB42F1D1002304F58676C7
:10156000A354094A02A930460292ADF80C3013F098
:101570009FFA0123304684F8C13217F077FB04F557
:10158000277017F073FBDAE740CC02087047043885
:101590007047704710B50446102129F027FA2046FD
:1015A00010BDA0F10400F5E7002210B58260044AE6
:1015B000C16002F1080420320460426010BD00BF27
:1015C000BCCF0208704708461146FFF7FDBE08462B
:1015D0001146FFF72DBE08461146FFF791BE0000E9
:1015E00010B50446024B036001F0F4FD204610BD27
:1015F000ECCF020810B50446FFF7F2FF204640F694
:10160000C42129F0F3F9204610BD000010B50446AE
:1016100001F014FF014B2046236010BDECCF0208FF
:1016200001F0C2BE704704387047704710B50446D9
:10163000102129F0DBF9204610BDA0F10400F5E7E8
:10164000002210B58260044AC16002F10804203211
:101650000460426010BD00BF24D00208704770478C
:10166000034630B4C56844686A10ED0704EB020015
:101670009B6848BFA25830BC48BFD358184743683E
:101680002BB183682BB9C06800F001007047184681
:1016900070470120704710B50446102129F0A6F9C3
:1016A000204610BD08461146FFF746BD10B504465A
:1016B000024B036002F038FA204610BD6CD00208DD
:1016C00010B50446FFF7F2FF204642F2A41129F0BC
:1016D0008DF9204610BD000010B5044602F09EFAB8
:1016E000084B0949236042F29413E150E21842F298
:1016F0009C135460054A2046E25042F2A013002297
:10170000E25010BD6CD0020854D002082D1700081A
:1017100010B5044600F506511431F4300EF01DFBEF
:101720002046BDE8104002F0EDB9000073B50D464B
:1017300000F58C640646204617F098FA062D0ED860
:10174000DFE805F004171B1F23272B00154B009320
:101750001D2369462046ADF8043013F0A9F9204650
:1017600017F084FAF06B294603681B69984702B0AA
:1017700070BD0C4B00931C23EBE70A4B00931B231B
:10178000E7E7084B00931A23E3E7064B009319237E
:10179000DFE7044B00931823DBE7024B009317238A
:1017A000D7E700BF40CC0208704704387047704745
:1017B00010B50446102129F019F9204610BDA0F1FA
:1017C0000400F5E7806800F095B80000002210B52D
:1017D0008260044AC16002F108042432046042605D
:1017E00010BD00BF9CD002087047000010B5044631
:1017F000024B036002F0E6FB204610BDD0D0020889
:1018000010B50446FFF7F2FF20464FF4FB5129F0D4
:10181000EDF8204610BD000010B5044602F0F8FBBC
:10182000034B0122236041F65C732046E25410BD55
:10183000D0D0020802F0A2BBF0B500F5AA7785B0BF
:10184000044638460DF02BFC05466A4601A9384689
:101850000DF01BFC019BAB4241F65C730CD10122E5
:10186000E25441F65C73E35C03B101352946384626
:101870000DF04DFB05B0F0BD009AAA42F1D1002257
:10188000E2540B4B04F586760293142302A93046EA
:10189000ADF80C3013F00CF90123304684F8C13256
:1018A00017F0E4F904F5277017F0E0F9D9E700BF65
:1018B00040CC0208704704387047704710B50446A2
:1018C000102129F093F8204610BDA0F10400F5E79F
:1018D000002210B58260044AC16002F1080420327F
:1018E0000460426010BD00BFFCD00208002202600C
:1018F000704770474160704770477047034670B447
:10190000C66845687410F60705EB04009B6844BF81
:101910002C59E35870BC184743682BB183682BB926
:10192000C06800F0010070471846704701207047FA
:1019300010B50446102129F059F8204610BD0000CA
:1019400010B50446024B036002F01AFD204610BD9C
:1019500048D1020810B50446FFF7F2FF204640F2D6
:101960001C6129F043F8204610BD000010B5044664
:1019700002F0D2FE104B114A2360114BC4F8EC2543
:10198000C4F8F4350023C4F8FC250E49C4F80C262D
:101990000D4AC4F8F045C4F8F835C4F80046C4F858
:1019A0000416C4F80836C4F81046C4F81426C4F85F
:1019B0001836204610BD00BF48D102082CD10208BD
:1019C000351A0008151A0008251A000810B5044633
:1019D00002F0D7FC04F2EC53C4F8F43104F2FC53E7
:1019E000C4F8FC3104F20C63C4F8F83110BD0000F7
:1019F00010B504460B46064A0A2100F5B56019F0F9
:101A00000AFD04F51270BDE8104017F02FB900BFB1
:101A10003CD1020800F586738B4202D11146FFF7D4
:101A2000E7BF704700F586738B4202D11146FFF77E
:101A3000DFBF704700F586738B4202D11146FFF776
:101A4000D7BF7047704704387047704710B50446D9
:101A5000102128F0CBFF204610BDA0F10400F5E7CF
:101A6000002210B58260044AC16002F108042032ED
:101A70000460426010BD00BF74D1020870470000CE
:101A800010B50446024B036003F0BEF9204610BDBA
:101A9000A4D1020810B50446FFF7F2FF20464FF428
:101AA000E47128F0A3FF204610BD000010B50446E5
:101AB00003F0E4F9014B2046236010BDA4D10208D5
:101AC00003F0A3B9704704387047704710B5044657
:101AD000102128F08BFF204610BDA0F10400F5E78F
:101AE000002210B58260044AC16002F1080420326D
:101AF0000460426010BD00BFD0D10208704700F5FD
:101B000098730868496803C37047704703F056BB71
:101B100010B504464FF4AE7128F068FF204610BDA2
:101B200010B50446D0F85801FFF7E3FE2046BDE8A3
:101B3000104016F077B810B50446D0F8400158B1FF
:101B40000368DB68984738B1D4F8400103689B68A4
:101B500098470023C4F8403110BD000010B504467A
:101B600003F0F0FA014B2046236010BD00D20208BA
:101B7000704704387047704710B50446102128F0AC
:101B800035FF204610BDA0F10400F5E78068FFF79F
:101B9000B1BE0000002210B58260044AC16002F1AB
:101BA000080424320460426010BD00BF4CD2020819
:101BB00070477047034630B4C56844686A10ED0743
:101BC00004EB02009B6848BFA25830BC48BFD35802
:101BD000184743682BB183682BB9C06800F0010037
:101BE0007047184670470120704710B50446102111
:101BF00028F0FCFE204610BD08461146FFF72ABA21
:101C000010B50446024B036004F0DCFB204610BD17
:101C100098D2020810B50446FFF7F2FF204642F2C0
:101C2000082128F0E3FE204610BD000010B5044650
:101C300004F014FC084B0949236042F2F813E2183F
:101C4000E1505460064A04F508531A6042F2042336
:101C500000222046E25010BD98D2020880D202082D
:101C6000811C000810B5044600F507513831F430E6
:101C70000EF073F82046BDE8104004F091BB000060
:101C800073B50D4600F5AE660446304616F0EEFF1D
:101C90005DB1012D18D0304616F0E8FFE06B294603
:101CA00003681B69984702B070BD0D4B69460093ED
:101CB00011233046ADF8043012F0FAFE012384F807
:101CC000853484F82154E6E7054B694600931023D8
:101CD0003046ADF8043012F0EBFE0023EFE700BF12
:101CE00040CC0208704704387047704710B504466E
:101CF000102128F07BFE204610BDA0F10400F5E77E
:101D0000002210B58260044AC16002F1080420324A
:101D10000460426010BD00BFC8D2020870470000D6
:101D200010B50446024B036004F06CFD204610BD64
:101D3000F8D2020810B50446FFF7F2FF204640F241
:101D4000144128F053FE204610BD000010B5044693
:101D500004F00CFE014B2046236010BDF8D20208AF
:101D600004F051BD00207047C18070474FF6FF73EB
:101D700083814FF0FF3303621368C36110607047C3
:101D800090F825201AB190F8242002B1186070470D
:101D9000704770477047704710B504466C2128F0B3
:101DA00025FE204610BD000038B5044617F00AFE97
:101DB000254600231C4AE36345F8402B012284F8A2
:101DC00065201A4AA4F844302264FF22A4F8463061
:101DD000A4F84830A4F84A30A4F84C30A4F84E30A7
:101DE000A4F85030A4F85230C4E91533E365A4F8E0
:101DF0006030A4F8623084F8643084F86620A3660A
:101E000028464FF4F071FFF7ACF828464FF4A07164
:101E1000FFF7A9F84FF07F43201DA36629460EF077
:101E2000FDF8204638BD00BF2CD30208E00C0308A3
:101E30007047704770477047034630B4C5684468C0
:101E40006A10ED0704EB02009B6848BFA25830BC43
:101E500048BFD358184743682BB183682BB9C06873
:101E600000F001007047184670470120704790F855
:101E70002D3080F86030704710B50446642128F09A
:101E8000B5FD204610BD10B50446102128F0AEFD6A
:101E9000204610BD10B504464FF4C07128F0A6FDD1
:101EA000204610BD014691F82C30383013B1363140
:101EB00013F022B83431FBE710B50446006B50B183
:101EC0000368DB68984730B1206B2146BDE81040BD
:101ED00003689B68184710BD70B50B7904460E4621
:101EE00090F82C5053B955B13379012B17D1236891
:101EF0002046BDE87040D3F8883018477DB1B3FA6A
:101F000083F35B0984F82C3023682046D3F88C30A7
:101F10009847236820465B699847002DE4D170BD3F
:101F2000C430884208B505D115F0E0FDBDE8084091
:101F300003F094B908BD00000A4A026000228280C2
:101F4000C280028142818281C28102824282C0E9D2
:101F50000522C2610284428480F82420012280F894
:101F600025207047680F030870B5044615460368BE
:101F70001B6B9847236829462046BDE870405B6B81
:101F800018472DE9F0470B88044683861388B0F97B
:101F90000850C3861046914619F0F6FA022780468B
:101FA0004846B4F90A6019F023FB95FBF7F596FB58
:101FB000F7F690FBF7F098FBF7F1ADB2B6B2321A34
:101FC000691A04F1380012B209B2FFF7CDFF236895
:101FD0002046BDE8F047D3F88C30184770B504466A
:101FE000154603689B6B9847236829462046BDE841
:101FF0007040DB6B1847000010B504462622002114
:1020000029F005FE2046FFF797FF044B204623608A
:10201000FF2384F826300023A36210BDE00C0308E0
:102020002DE9F04F04460025A0468BB017F0CAFCFE
:102030007F4BE56348F8403B04F16C0B4046FFF7EB
:10204000DBFF5846FFF7D8FF04F1980304F1C407FB
:1020500018460093FFF7D0FF3846FFF76DFFFF23C8
:1020600084F8F130012384F8E830724B4FF0FF39E7
:10207000C4F8C430262304F1FC061A462946C4F8E5
:10208000EC5084F8F050C4F8F450C4F8F89030469E
:102090000193ADF8209029F0BAFD3046FFF74CFFD0
:1020A000654A0DF1280AC4F8FC203AF8082D84F896
:1020B0002491A4F822215146304612F01DFF3146EA
:1020C00038460DF0ABFF019B04F594761A4629467D
:1020D000304629F09CFD3046FFF72EFF4FF6FF7289
:1020E000A4F854214FF47F02544BC4F85C21544AA5
:1020F000C4F82831C4F87021524B534AC4F8503107
:10210000C4F8585184F8605184F86151A4F86451BE
:10211000A4F86651A4F86891A4F86A91C4F86C51C7
:10212000C4F87821C4F87C512A4629464046C4F8B0
:1021300074410193FFF718FF40464FF4A0724FF42B
:10214000F071FFF74BFF4FF07F4204F10409A266E4
:10215000414648460DF062FF2A4629465846FFF799
:1021600003FF58464FF4A0724FF4F071FFF736FFAB
:10217000364A5946C4F8942048460DF04FFF2A4687
:1021800029460098FFF7F0FE009832224FF4F071D4
:10219000FFF724FF2E4A0099C4F8C02048460DF0EE
:1021A0003DFF0E22ADF81C200D2207A9ADF820201E
:1021B00038465246FFF7E5FE04F5B872C4F8005100
:1021C000C4F8F42029462A463846FFF7CDFE2322DC
:1021D00038461146FFF702FF394648460DF01EFF0C
:1021E000294630464FF49A72FFF7BEFE194AA4F80A
:1021F0005C5102ADC4F858213146284612F0BEF9B0
:1022000095E80700019B04F5B27708932C2387E833
:10221000070051463046ADF8243012F049FC4846DC
:1022200031460DF0FBFE20460BB0BDE8F08F00BF3D
:1022300018D4020860D30208B00D0308500C03083C
:1022400000D4020840CC0208211F00082A2120FFE8
:102250001B1615FFC5C5CBFF7047704710B5044668
:10226000742128F0C3FB204610BD0000F0B5012307
:1022700000250646324A8580C5808581C581058254
:102280004582C0E90555C5610584458480F8245020
:1022900080F82530856246F82C2B80F851304FF6B7
:1022A000FF73A0F85830A0F86C30A0F86E30782397
:1022B000038128234FF47F010446224A224F4381A1
:1022C000224B87B0C26280F850504765C5650166F1
:1022D00080F8645080F86550A0F86850A0F86A5003
:1022E00005675221C0E90C35936BC0E90E55C0E972
:1022F0001055C0E9125530469847E36A3046DB6B0B
:1023000014219847A4F860506D46114B3146E3659F
:10231000284612F033F995E8070004F1680383E8D2
:102320000700322304A93046ADF81430049712F0A8
:10233000BFFB204631460DF071FE204607B0F0BDD0
:102340004CD40208500C030840CC020813000A00C9
:10235000C5C5CBFF7047704710B50446742128F0FF
:1023600045FB204610BD0000F0B5012300250646C0
:10237000324A8580C5808581C58105824582C0E954
:102380000555C5610584458480F8245080F82530C2
:10239000856246F82C2B80F851304FF6FF73A0F879
:1023A0005830A0F86C30A0F86E30782303812823D1
:1023B0004FF47F010446224A224F4381224B87B0CB
:1023C000C26280F850504765C565016680F8645068
:1023D00080F86550A0F86850A0F86A5005676E2133
:1023E000C0E90C35936BC0E90E55C0E91055C0E942
:1023F000125530469847E36A3046DB6B1421984704
:10240000A4F860506D46114B3146E365284612F042
:10241000B5F895E8070004F1680383E80700312365
:1024200004A93046ADF81430049712F041FB204661
:1024300031460DF0F3FD204607B0F0BDE0D40208B0
:10244000500C030840CC020805000A00C5C5CBFFAC
:102450007047704710B50446742128F0C7FA20462B
:1024600010BD0000F0B5012300250646324A8580E4
:10247000C5808581C58105824582C0E90555C56154
:102480000584458480F8245080F82530856246F81C
:102490002C2B80F851304FF6FF73A0F85830A0F87D
:1024A0006C30A0F86E307823038128234FF47F012D
:1024B0000446224A224F4381224B87B0C26280F8F1
:1024C00050504765C565016680F8645080F86550D6
:1024D000A0F86850A0F86A5005673B21C0E90C35A8
:1024E000936BC0E90E55C0E91055C0E9125530464E
:1024F0009847E36A3046DB6B14219847A4F8605094
:102500006D46114B3146E365284612F037F895E8E1
:10251000070004F1680383E80700332304A9304669
:10252000ADF81430049712F0C3FA204631460DF08E
:1025300075FD204607B0F0BD74D50208500C0308A5
:1025400040CC02081F000A00C5C5CBFF704770478A
:1025500010B50446742128F049FA204610BD000049
:10256000F0B5012300250646364A8580C580858161
:10257000C58105824582C0E90555C561058445844C
:1025800080F8245080F82530856246F82C2B80F89E
:1025900051304FF6FF732C4A2C4FC2620586858658
:1025A000C586058745878587C587C0E91055856439
:1025B000A0F84C50A0F84E5080F850504765A0F855
:1025C0005830A0F86C30A0F86E30F023038150230F
:1025D0004FF47F0143811E23044687B0C565016621
:1025E00080F8645080F86550A0F86850A0F86A50F0
:1025F00005674386BB21936B30469847E36A3046B4
:10260000DB6B14219847A4F860506D46104B31469F
:10261000E365284611F0B2FF95E8070004F168036E
:1026200083E80700392304A93046ADF81430049735
:1026300012F03EFA204631460DF0F0FC204607B07D
:10264000F0BD00BF08D60208500C030840CC0208B9
:102650007BC5F6FF7047704710B50446742128F01B
:10266000C5F9204610BD0000F0B50123002506463F
:10267000364A8580C5808581C58105824582C0E94D
:102680000555C5610584458480F8245080F82530BF
:10269000856246F82C2B80F851304FF6FF732C4A98
:1026A0002C4FC26205868586C58605874587858746
:1026B000C587C0E910558564A0F84C50A0F84E506D
:1026C00080F850504765A0F85830A0F86C30A0F85A
:1026D0006E30F023038150234FF47F0143811E238A
:1026E000044687B0C565016680F8645080F865507F
:1026F000A0F86850A0F86A5005674386BB21936B29
:1027000030469847E36A3046DB6B14219847A4F8BB
:1027100060506D46104B3146E365284611F02EFFA0
:1027200095E8070004F1680383E80700522304A931
:102730003046ADF81430049712F0BAF9204631460D
:102740000DF06CFC204607B0F0BD00BF9CD602081F
:10275000500C030840CC02087BC5F6FF7047704759
:1027600090F82C302BB1C26EC26523B1436F036663
:102770007047826EF8E7036FF9E7704770470346CA
:1027800030B4C56844686A10ED0704EB02009B682A
:1027900048BFA25830BC48BFD358184743682BB134
:1027A00083682BB9C06800F0010070471846704775
:1027B0000120704790F82D3080F85A30704710B5DE
:1027C0000446782128F012F9204610BD10B50446C1
:1027D000102128F00BF9204610BD10B504464FF427
:1027E0002D7128F003F9204610BD38B500F5867329
:1027F000994204460D4603D115F078F902F0DEFC4B
:1028000004F50B74A54205D115F070F9BDE8384008
:1028100002F074BD38BD70B504461E46BDF91050B7
:10282000FFF7A2FB2368314620469A6B9047236846
:1028300029462046BDE87040DB6B184710B50446BA
:102840002622002129F0E3F92046FFF775FB0C4B07
:102850004FF6FF7223600B4B4FF47F01A3620023FE
:10286000A285C4E90C3184F8383084F83930A38764
:10287000E387A4F84020A4F842206364204610BDFA
:10288000500C030840CC020838B504460D462622F9
:10289000002129F0BCF92046FFF74EFB064B2046ED
:1028A00023602B882946E384FF2384F8283012F024
:1028B00023FB204638BD00BFB00D03082DE9F04FC3
:1028C00004460025A14691B017F07CF8D34BE56390
:1028D00049F8403B04F16C0A4846FFF78DFB50462F
:1028E000FFF78AFB04F1980304F1C4081846079324
:1028F000FFF782FB4046FFF7A1FF04F586731846F9
:102900000493FFF719FBFF2384F839314FF00103DB
:1029100084F83031C24B4FF6FF76C4F80C314FF0DB
:10292000FF3310AF27F8083D04F5A27BC4F840310F
:102930003946C4F8345184F83851C4F83C515846EB
:10294000FFF7A2FF5946049804F5B87B0DF066FB2B
:102950005846FFF773FF04F5DC7210460292FFF74A
:102960006DFF04F50072394610460592ADF83860E7
:10297000FFF78AFF04F50B7210460392FFF7DCFAAB
:102980004FF0010384F85032A64B04F5187284F816
:102990005962C4F82C32C4F8545284F85852C4F81E
:1029A0005C5210460692FFF727FB9F4B2A46C4F85D
:1029B000603229460698C4F88C52A4F89052C4F8A4
:1029C0009452C4F89852C4F89C52C4F8A052FFF72D
:1029D000CBFA069903980DF021FB4FF4A072934BAC
:1029E0000092C4F8A432924B2A46C4F8AC3229466D
:1029F0004846C4F8A842C4F8B0524FF4F073FFF749
:102A00000AFF4FF07F43261DA366494630460DF06E
:102A100005FB4FF4A0722946009250462A464FF417
:102A2000F073FFF7F8FE834B5146C4F894303046FC
:102A30000DF0F4FA32232A460093294607984FF402
:102A4000F073FFF7E8FE7C4B0799C4F8C0303046BE
:102A50000DF0E4FA0F224046AF21FFF785FA774BDD
:102A60000DF12009C4F8F43041464846A4F8F85066
:102A700011F084FD99E8070004F5807383E80700EE
:102A80002723DFF8C4A139464046ADF83C30CDF8E5
:102A900038A012F00DF8414630460DF0BFFA0E2373
:102AA000ADF834300D233A460DA90498ADF838300E
:102AB000FFF767FA232304F5297800932A4629466D
:102AC0000498C4F84851C4F83C81FFF7A4FE049967
:102AD00030460DF0A3FA4FF49A7229465846FFF794
:102AE00043FA574B5946C4F8A0314846A4F8A451BC
:102AF00011F044FD99E8070004F5D67383E8070058
:102B0000262339465846ADF83C30CDF838A011F0B0
:102B1000CFFF594630460DF081FA7F234FF0050B69
:102B200000934E2202984FF4D8731821FFF773FEDA
:102B3000434B0299C4F8E8314846A4F8ECB111F0CF
:102B40001DFD99E8070004F5FA7383E80700049374
:102B50004FF00103029984F8F131484611F00EFD5F
:102B600099E80700049B4FF0140983E80700252328
:102B700039460298ADF83C30CDF838A011F098FFF6
:102B8000029930460DF04AFAE1220598A021FFF79C
:102B9000EBF939460598ADF8389012F0ADF9059982
:102BA00030460DF03BFA2A4629460698CDF80090AB
:102BB0008223FFF730FE234B0398C4F8943203F5C9
:102BC0004C533333C4F89832A3F5CC43663BC4F876
:102BD0009C3203F1331303F54C53C4F8A032A4F82C
:102BE00090B2FFF7BDFDD4F82C3284F85952039807
:102BF000D3F89030984782230F220398C4F85C8260
:102C0000CDF80090B021FFF706FE304603990DF095
:102C100005FA204611B0BDE8F08F00BFE4D70208E6
:102C200060D3020830D70208480D0308CCD7020849
:102C3000EB2700082A2120FF1B1615FF7BC5F6FF96
:102C4000C5C5CBFF996600FF40CC02080020704745
:102C5000B1F9043083800120704770477047704796
:102C6000034630B4C56844686A10ED0704EB0200FF
:102C70009B6848BFA25830BC48BFD3581847436828
:102C80002BB183682BB9C06800F00100704718466B
:102C900070470120704710B50446102127F0A6FEAA
:102CA000204610BD10B50446024B036013F012FA23
:102CB000204610BD90D9020810B50446054B0360AC
:102CC00013F008FA204641F65C7127F08FFE20468B
:102CD00010BD00BF90D9020800F52770884208B5E2
:102CE00005D114F003FFBDE8084002F067BA08BD43
:102CF000002370B58380114B114D03602A6806468E
:102D000092F8581009B1D06C00B990680368DB6A7A
:102D10009847B0FA80F42B686409D86C28B103682E
:102D2000DB6A9847002808BF01242CB9054B064AE6
:102D30002C21064828F0E2FE304670BD18D8020863
:102D4000CCC20120CBD80208BCD9020829D902087C
:102D5000F8B51A4B018F1B8806468B4229D9184BB0
:102D60001B682BB9174B184A6C21184828F0C6FE6F
:102D700013F81120164B1B6853F82250154B186896
:102D800004F052FA2B6807469B6B284698472B683D
:102D900004469B6C3946284698472B6814FB00F480
:102DA0005B6A394628469847A4B22044A6F84600F4
:102DB000F8BD0023A0F84630FAE700BF28C3012081
:102DC00024C3012048D80208F5D902088AD802088D
:102DD0002CC3012030C301202DE9F04F044600250B
:102DE000A04691B016F0EEFDAD4BE56348F8403BD0
:102DF00004F16C0A4046FFF7FFF804F198095046C9
:102E0000FFF7FAF804F1C4074846FFF7F5F838462B
:102E1000FFF714FD04F5867304F5AA7618460393AC
:102E2000FFF70CFD30460CF0CBF804F52273184682
:102E30000693FFF75DFF9B4BC4F89452C4F88832A9
:102E40002433C4F8903204F527731846049312F023
:102E500095F904F5397318460593FFF7EFFC41F631
:102E60004C73E2180792904A04F54B70E250079BAE
:102E70008E4A5C6041F65473E25041F658734FF449
:102E8000E151E55013F01CF94FF4A0732A4600936A
:102E9000294640464FF4F073FFF7BDFC4FF07F43E7
:102EA00004F1040BA366414658460DF0B7F84FF401
:102EB000A0732A460093294650464FF4F073FFF75B
:102EC000AAFC7B4B5146C4F8943058460DF0A6F846
:102ED00032232A460093294648464FF4F073FFF701
:102EE0009AFC744B4946C4F8C03058460DF096F829
:102EF0000F223846BD21FFF737F86F4B0DF1200840
:102F0000C4F8F43039464046A4F8F85011F036FBC6
:102F100098E8070004F5807383E807002823DFF8AA
:102F20009C910EA93846ADF83C30CDF8389011F0A0
:102F3000BFFD394658460DF071F82223DFF880A115
:102F4000009361224FF4AF7303984121FFF763FCB4
:102F500003994046C4F83CA1A4F8405111F00EFB7F
:102F600098E8070004F5A47383E8070029230527E0
:102F70000EA90398ADF83C30CDF8389011F098FDCB
:102F8000039958460DF04AF83046AE225A21FEF712
:102F9000EBFF2A462946304600974FF496730BF014
:102FA000F5FFC8222B462946304600950CF03AF82A
:102FB0000F230EA93046ADF838300CF061F93E4BC6
:102FC0000699C4F894324FF22F633046A4F8983231
:102FD0000BF048FF2946304602220BF06EFF02221A
:102FE00030464FF496710BF04DFF394630460BF0EA
:102FF0006DFF294630460BF074FF294630460BF032
:1030000086FF314658460DF009F80498C822A521DC
:10301000FEF7AAFF0223ADF8343003230EAA0DA950
:103020000498ADF8383011F0A0FD2A230498A4F8D4
:10303000D432FFF78DFE4FF0FF33C4F8D832C4F816
:10304000DC32079B0499C4F8C432584684F8C15254
:103050000CF0E4FF4FF49A7229460598FEF784FFBE
:1030600005994046C4F814A3A4F8185311F086FA41
:1030700098E8070004F5487383E807002B230EA99E
:103080000598ADF83C30CDF8389011F011FD584658
:1030900005990CF0C3FF204611B0BDE8F08F00BFCA
:1030A00090D902083C09030838D80208D92C000836
:1030B0002A2120FF1B1615FF7BC5F6FF40CC020816
:1030C000C5C5CBFF7047704770472DE9F0411E46DC
:1030D00000F54273994204460D46174609D1114640
:1030E000284600F01FF923680146DB6A3246204675
:1030F000984704F29C539D4209D13946284600F076
:1031000027F9236801461B6B32462046984704F591
:1031100003639D420BD13946284600F02FF92368FE
:10312000324601465B6B2046BDE8F0411847BDE8DA
:10313000F0810420704704207047042070477047D6
:103140007047704770B505460446094B45F8043B87
:1031500000F5EA739D4208D0A3F1740653F8743C5D
:1031600030461B6898473346F4E7204670BD00BFE1
:1031700068DA020870B505460446094B45F8043B79
:1031800000F5EA739D4208D0A3F1740653F8743C2D
:1031900030461B6898473346F4E7204670BD00BFB1
:1031A00050DA020870B505460446094B45F8043B61
:1031B00000F5EA739D4208D0A3F1740653F8743CFD
:1031C00030461B6898473346F4E7204670BD00BF81
:1031D00038DA020810B50446074B036000F50360B7
:1031E000FFF7B0FF04F29C50FFF7C4FF04F54270F4
:1031F000FFF7D8FF204610BD3CDB0208034630B481
:10320000C56844686A10ED0704EB02009B6848BF7C
:10321000A25830BC48BFD358184743682BB18368C5
:103220002BB9C06800F001007047184670470120B4
:103230007047034630B4C56844686A10ED0704EB74
:1032400002009B6848BFA25830BC48BFD3581847FB
:1032500043682BB183682BB9C06800F00100704748
:103260001846704701207047F0B4C7684668846804
:103270007D10F80748BF705906EB050C48BF04598C
:103280006046A446F0BC604743682BB183682BB905
:10329000C06800F001007047184670470120704771
:1032A00010B50446FFF77EFF20464FF4EA7127F081
:1032B0009DFB204610BD10B50446FFF75BFF20467E
:1032C0004FF4EA7127F092FB204610BD10B504467A
:1032D000FFF738FF20464FF4EA7127F087FB2046BE
:1032E00010BD10B50446102127F080FB204610BD0C
:1032F00010B50446102127F079FB204610BD10B50B
:103300000446102127F072FB204610BD10B504467C
:10331000FFF760FF204640F6C42127F067FB2046F8
:1033200010BD000008B58BB2032B05D9054B064A2A
:103330005421064828F0E2FB742301FB030004300B
:1033400008BD00BFC0DA020874DB0208DBDA02083D
:1033500008B58BB2032B05D9054B064A5421064804
:1033600028F0CCFB742301FB0300043008BD00BF30
:10337000C0DA020804DC0208DBDA020808B58BB206
:10338000032B05D9054B064A5421064828F0B6FB05
:10339000742301FB0300043008BD00BFC0DA02083B
:1033A00094DC0208DBDA020870B5044600F51D70F3
:1033B0000CF06EF94FF4437540F2DC466359601926
:1033C000D3F8883074359847B542F7D104F5A16039
:1033D0000CF05EF94FF4B46563596019D3F8883086
:1033E00074359847B5F5EE6FF6D104F29C700CF089
:1033F0004FF940F6340540F6042663596019D3F8B6
:10340000883074359847B542F7D170BD00F5F27039
:10341000884208B505D114F069FBBDE8084001F009
:10342000CDBE08BD00F64C20884208B505D114F089
:103430005DFBBDE8084001F051BF08BD2DE9F04F2C
:1034400004460027A14697B016F0BCFAD64BE763B6
:1034500049F8403B4846FEF7CFFD04F16C0318469F
:103460000993FEF7C9FD04F19803184604F1C40856
:103470000A93FEF7C1FD4046FFF7E0F904F58673B5
:1034800018460393FFF7DAF904F5AA731846049374
:10349000FFF7D4F904F5CE7318460593FFF7CEF97C
:1034A00004F5F27318460693FEF746FDFF2384F8F1
:1034B000113201234FF0FF3684F80832BB4B04F57C
:1034C000077526223946C4F8E431C4F80C7284F832
:1034D0001072C4F81472C4F818622846ADF850602F
:1034E00028F095FB2846FEF727FDB14B16A9C4F836
:1034F0001C3231F8083D2846A4F8423284F8446270
:1035000011F0FAFC04F51277294606980CF086FDB6
:1035100038460CF053FAA74B04F54375C4F848320B
:1035200004F542730B93A44B04F2DC46C4F8083351
:1035300028467435FDF712FFB542F9D104F2DC4A92
:1035400050460CF03BFA9B4B04F5B465C4F8DC34F0
:1035500004F29C530C93994B04F5EE66C4F89C3529
:1035600028467435FDF72EFEB542F9D104F5EE6B11
:1035700058460CF023FA8F4B04F63405C4F8703724
:1035800004F503630D938E4B04F60426C4F830381B
:1035900028467435FDF77EFEB542F9D104F60423C2
:1035A00018460793FFF74AF904F64C231846089388
:1035B00011F0E4FD834B0025C4F8943A824B2A466F
:1035C000C4F89C3A814B2946C4F8A43A804B48463B
:1035D000C4F8AC3A7F4BC4F8984AC4F8B43A7E4B6E
:1035E000C4F8A05AC4F8BC3A4FF4A073C4F8A84A6F
:1035F0000093C4F8B05AC4F8B84AC4F8C05A4FF49B
:10360000F073FFF708F94FF07F43261DA366494684
:1036100030460CF003FD4FF4A0732A460093294670
:1036200009984FF4F073FFF7F6F86C4B0999C4F85A
:10363000943030460CF0F2FC32232A46009329469F
:103640000A984FF4F073FFF7E6F8654B0A99C4F84F
:10365000C03030460CF0E2FC0F2240468921FEF7D4
:1036600083FC604B0DF13809C4F8F43041464846FC
:10367000A4F8F85010F082FF99E8070008F13C0325
:1036800083E80700584B14A9149338234046ADF83B
:10369000543011F00DFA414630460CF0BFFC03984F
:1036A0004B221F21FEF760FC504A0399C4F83C21CD
:1036B0004846A4F8405110F061FF03994FF0780894
:1036C00001F13C0399E8070083E80700464B14A981
:1036D000149334230398ADF8543011F0E9F90399A9
:1036E00030460CF09BFC04984B22C621FEF73CFCB4
:1036F0003E4A0499C4F884214846A4F8885110F041
:103700003DFF049901F13C0399E8070083E80700B5
:10371000354B14A9149335230498ADF8543011F0A7
:10372000C7F9049930460CF079FC05984B2240F219
:103730005311FEF719FC2D4A0599C4F8CC214846CF
:10374000A4F8D05110F01AFF059901F13C0399E853
:10375000070083E80700244B14A914933623059827
:10376000ADF8543011F0A4F9059930460CF056FC30
:103770000E23ADF84C300D2314A90A46069813A960
:10378000ADF85030FEF7FDFB04F6A423C4F8143264
:1037900023232A46009329460698C4F82052FFF7AF
:1037A0003AF80699304623E03CDB020860D3020871
:1037B000B00D0308AC06030838DA020850DA020834
:1037C00068DA020880DA0208CB30000898DA0208CA
:1037D0000D340008B0DA0208253400082A2120FF41
:1037E0001B1615FF7BC5F6FF40CC0208C5C5CBFFF5
:1037F0000CF014FC434677223846CDF80080242193
:10380000FFF709F8294638460CF064FB294638468C
:103810000CF0C0FB384676490CF096FA38460A217F
:103820000CF095FA38460A210CF094FA38460A2131
:103830000CF006FA384628210BF0C8FF4FF04B0178
:103840002A4684F8D212384628210CF079F904F679
:103850009420039002460B9938460CF0B3FB2A469D
:10386000294638460CF05CF9394630460CF0D6FB58
:10387000434677225046CDF80080B421FEF7CBFFB7
:10388000294650460CF026FB294650460CF082FB98
:10389000504657490CF058FA50460A210CF057FA96
:1038A00050460A210CF056FA504603210CF0C8F994
:1038B000504628210BF08AFF4FF04B010F4684F849
:1038C00066152A46504628210CF03AF9039A0C99BD
:1038D00050460CF077FB2A46294650460CF020F95A
:1038E000514630460CF09AFB434677225846CDF8B5
:1038F00000804FF4A271FEF78EFF294658460CF067
:10390000E9FA294658460CF045FB584638490CF070
:103910001BFA58460A210CF01AFA58460A210CF0F4
:1039200019FA584602210CF08BF9584628210BF061
:103930004DFF2A46584684F8FA7728210CF000F902
:10394000039A0D9958460CF03DFB2A4629465846E5
:103950000CF0E6F8594630460CF060FB2946079813
:103960004FF49A72FEF700FB224A0799C4F8342AF2
:103970004846A4F8385A10F001FE99E8070004F50B
:10398000246383E807001C4B14A914932E23079883
:10399000ADF8543011F08CF8079930460CF03EFB2E
:1039A0000898F0229221FEF7DFFA012314AA13A946
:1039B0000898ADF85030ADF84C5011F0D6F82D23E2
:1039C0000898A4F8843AFFF7C3F94FF0FF33C4F81E
:1039D000883AC4F88C3A04F6B4233046C4F8743AF2
:1039E00008990CF01BFB204617B0BDE8F08F00BF14
:1039F000A59D0108C5C5CBFF40CC02087047052036
:103A0000704770477047000070B505460446094B83
:103A100045F8043B00F512739D4208D0A3F17406EB
:103A200053F8743C30461B6898473346F4E7204609
:103A300070BD00BF2CDD0208034630B4C568446881
:103A40006A10ED0704EB02009B6848BFA25830BC27
:103A500048BFD358184743682BB183682BB9C06857
:103A600000F0010070471846704701207047F0B41D
:103A7000C768466884687D10F80748BF705906EB30
:103A8000050C48BF04596046A446F0BC6047436833
:103A90002BB183682BB9C06800F00100704718464D
:103AA00070470120704710B50446FFF7ADFF204670
:103AB0004FF4127126F09AFF204610BD10B504464F
:103AC000102126F093FF204610BD10B504461021AA
:103AD00026F08CFF204610BD08B58BB2042B05D90B
:103AE000054B064A5421064828F008F8742301FBC8
:103AF0000300043008BD00BFC0DA0208A4DD0208DC
:103B0000DBDA020838B5054600F590700BF0C0FD11
:103B10004FF4DC742B592819D3F888307434984743
:103B2000B4F57F7FF6D138BD10B50446044B036071
:103B300012F0D0FA04F5DA70FFF766FF204610BDE8
:103B400074DD020810B50446FFF7EEFF204642F28E
:103B5000941126F04BFF204610BD70B5044600F5C9
:103B6000DA7088421E460BD11146FFF7B5FF236875
:103B70003246DD6A01462B462046BDE870401847B4
:103B800070BD38B500F57F73994204460D4603D1E8
:103B900013F0ACFF01F042FB04F59564A54205D19A
:103BA00013F0A4FFBDE8384001F008BB38BD0000A9
:103BB00073B50446FEF7C0F9FF2384F82D300123C6
:103BC00000214FF0FF3684F82430124B04F1380501
:103BD0002622A16284F82C102360216366632846A4
:103BE000ADF8046028F013F82846FEF7A5F90A4B53
:103BF00002A9A36331F8043D2846A4F85E3084F896
:103C0000606011F079F9204629460CF007FA204649
:103C100002B070BD60D30208B00D03082DE9F04F6B
:103C200004460025A04693B015F0CCFEC64BE563D4
:103C300048F8403B404604F16C0AFEF7DDF9504677
:103C4000FEF7DAF904F19803184605930FF0FEFA2F
:103C500004F1E00318460793FFF74AF8BB4B04F161
:103C6000F406C4F8E0302433C4F8EC50C4F8E8306B
:103C700030460BF0A3FEB64B04F5DC75C4F8F43007
:103C800004F5DA730993B34B04F57F7BC4F8B431C0
:103C900028467435FDF746FAAB45F9D15846FFF78B
:103CA00087FF04F58C6318460293FEF7C7FD04F501
:103CB000956318460493FFF77BFF04F20C531846F4
:103CC0000393FEF7BBFD42F27413E2180892A24A76
:103CD0000025E250089BA14A5C6042F27C13E2504E
:103CE00004F506531D6042F28413E21806929C4AC2
:103CF0004FF4A079E250069B9A4A5C6042F28C1322
:103D0000E25042F2901304F25450E5504FF4E15166
:103D100012F0D6F92A46CDF80090294640464FF4D5
:103D2000F073FEF778FD4FF07F43271DA3664146F1
:103D300038460CF073F92A46CDF8009029465046D3
:103D40004FF4F073FEF767FD874B5146C4F894308B
:103D500038460CF063F9CDF800902A4605984FF4E8
:103D60008273DC21FEF757FD4FF402534FF4A0524B
:103D7000C4F8CC30C4E931324FF43453C4F8D430F1
:103D80007A4B0599C4F8EC3041F2A303A4F8F03063
:103D9000079B3846C4F8C030C4F8D850C4F8D05097
:103DA0000CF03CF9F0232A461946CDF80090304635
:103DB000FEF731FD294630460CF08CF830460121E3
:103DC0000CF0E8F830466A490BF0BEFF30460F2190
:103DD0000BF0BDFF30460A210BF0BCFF3046072137
:103DE0000BF02EFF304678210BF0F0FC4FF04B0328
:103DF0002A4684F87E31304650210BF0A1FEDDE9E1
:103E0000082130460CF0DEF82A46294630460BF0F1
:103E100087FE314638460CF001F90C23ADF83C30F2
:103E20000B234FF023090DF1480828F8083D4246BE
:103E30000FA95846FEF7A5F8069B8F22C4F82C342C
:103E400058464B46C4F83854CDF8009040F2B311B0
:103E5000FEF7E1FC594638460CF0E0F8F023282242
:103E600000930298AF231E21FEF7D5FC0523DFF84F
:103E700004B10AAEA4F8943402993046C4F890B460
:103E800010F07CFB96E80700012304F29C4A8AE8C4
:103E9000070084F899340299304610F06FFB96E8D9
:103EA000070051238AE80700DFF8CCA041460298BA
:103EB000ADF84430CDF840A010F0FAFD0299384634
:103EC0000CF0ACF80E23ADF83C300D2342460FA9A0
:103ED0000498ADF84030FEF754F8069B2A46C4F823
:103EE000D83429464B460498C4F8E454CDF80090E1
:103EF000FEF791FC049938460CF090F84FF49A7252
:103F000029460398FEF730F803993046C4F83CB5CB
:103F1000A4F8405510F032FB96E8070004F5A963B9
:103F200083E807004FF04B0341460398ADF8443057
:103F3000CDF840A010F0BCFD384603990CF06EF8A7
:103F4000204613B0BDE8F08F74DD02083C09030879
:103F5000AC0603082CDD020844DD02085B3B0008C8
:103F60005CDD0208833B00082A2120FF1B1615FF99
:103F7000A59D0108C5C5CBFF40CC0208704770471E
:103F8000034630B4C56844686A10ED0704EB0200CC
:103F90009B6848BFA25830BC48BFD35818474368F5
:103FA0002BB183682BB9C06800F001007047184638
:103FB00070470120704710B50446102126F016FD09
:103FC000204610BD10B50446024B036012F082F883
:103FD000204610BD54DE020810B50446054B0360B0
:103FE00012F078F8204641F65C7126F0FFFC20467E
:103FF00010BD00BF54DE020800F52770884208B5E6
:1040000005D113F073FDBDE8084001F0D7B808BD35
:104010002DE9F04F04460025A04691B015F0D2FCE2
:10402000AD4BE56348F8403B04F16C0A4046FDF7B0
:10403000E3FF04F198095046FDF7DEFF04F1C407E1
:104040004846FDF7D9FF3846FEF7F8FB04F58673BE
:1040500004F5AA7618460393FEF7F0FB30460AF003
:10406000AFFF04F5227318460693FEF741FE9B4B03
:10407000C4F89452C4F888322433C4F8903204F55A
:1040800027731846049311F079F804F5397318462C
:104090000593FEF7D3FB41F64C73E2180792904A62
:1040A00004F54B70E250079B8E4A5C6041F65473F6
:1040B000E25041F658734FF4E151E55012F000F828
:1040C0004FF4A0732A460093294640464FF4F073FC
:1040D000FEF7A1FB4FF07F4304F1040BA3664146BA
:1040E00058460BF09BFF4FF4A0732A4600932946D5
:1040F00050464FF4F073FEF78EFB7B4B5146C4F8ED
:10410000943058460BF08AFF32232A460093294602
:1041100048464FF4F073FEF77EFB744B4946C4F8F3
:10412000C03058460BF07AFF0F2238468921FDF740
:104130001BFF6F4B0DF12008C4F8F43039464046A0
:10414000A4F8F85010F01AFA98E8070004F5807304
:1041500083E807003F23DFF89C910EA93846ADF8AD
:104160003C30CDF8389010F0A3FC394658460BF09F
:1041700055FF2223DFF880A10093612240F25F13F4
:1041800003984121FEF747FB03994046C4F83CA140
:10419000A4F8405110F0F2F998E8070004F5A47370
:1041A00083E807003D2305270EA90398ADF83C30AE
:1041B000CDF8389010F07CFC039958460BF02EFF98
:1041C0003046AE225A21FDF7CFFE2A462946304618
:1041D00000974FF496730AF0D9FEC8222B46294661
:1041E000304600950AF01EFF0F230EA93046ADF8A9
:1041F00038300BF045F83E4B0699C4F894324FF234
:104200002F633046A4F898320AF02CFE2946304637
:1042100002220AF052FE022230464FF496710AF052
:1042200031FE394630460AF051FE294630460AF042
:1042300058FE294630460AF06AFE314658460BF0D1
:10424000EDFE0498C822A521FDF78EFE0223ADF8ED
:10425000343003230EAA0DA90498ADF8383010F0BD
:1042600084FC3C230498A4F8D432FEF771FD4FF08F
:10427000FF33C4F8D832C4F8DC32079B0499C4F881
:10428000C432584684F8C1520BF0C8FE4FF49A72FB
:1042900029460598FDF768FE05994046C4F814A321
:1042A000A4F8185310F06AF998E8070004F5487369
:1042B00083E807003B230EA90598ADF83C30CDF804
:1042C000389010F0F5FB584605990BF0A7FE2046F4
:1042D00011B0BDE8F08F00BF54DE02083C090308AE
:1042E0003CDE0208F93F00082A2120FF1B1615FFBB
:1042F0007BC5F6FF40CC0208C5C5CBFF30B585B005
:104300006D460368018104460146D3F8843028468F
:10431000984795E807003C3484E8070005B030BDB5
:1043200030B585B06D460368418104460146D3F837
:1043300084302846984795E807003C3484E8070015
:1043400005B030BD0022028042808280C28070476A
:1043500080F83610704770B50446154603681B6B2D
:104360009847236829462046BDE870405B6E184791
:104370000020704708B5FCF7EBFD08BD806C704766
:1043800070477047704770477047704770470346E3
:1043900030B4C56844686A10ED0704EB02009B68FE
:1043A00048BFA25830BC48BFD358184743682BB108
:1043B00083682BB9C06800F0010070471846704749
:1043C00001207047034630B4C56844686A10ED07A1
:1043D00004EB02009B6848BFA25830BC48BFD358CA
:1043E000184743682BB183682BB9C06800F00100FF
:1043F0007047184670470120704783898B4286BFFB
:1044000000EB8100406800207047002210B58489CD
:10441000031D91B28C4208D953F8041B104691F841
:10442000371001320029F4D010BD4FF0FF30FBE708
:1044300010B5036804461B699847011E06DB236814
:104440002046BDE81040DB6889B21847002010BD47
:10445000002330B585899CB2A54203F1010206D93B
:1044600000EB84035B6883F838101346F2E730BD35
:1044700083891BB1436893F838007047184670472A
:10448000034630B4C56844686A10ED0704EB0200C7
:104490009B6848BFA25830BC48BFD35818474368F0
:1044A0002BB183682BB9C06800F001007047184633
:1044B00070470120704770B50D460446012128461B
:1044C00010F02CFF236829462046BDE870405B6A47
:1044D000184710B504464C2126F088FA204610BD36
:1044E00010B50446382126F081FA204610BD10B5DB
:1044F0000446102126F07AFA204610BD10B5044675
:10450000102126F073FA204610BD10B50446102184
:1045100026F06CFA204610BD10B5044640F2EC516E
:1045200026F064FA204610BD70B5036804465E6B41
:10453000114B8DB21B682BB96C21104B104A1148DE
:1045400027F0DCFA1049828D0988914203D80F4B7D
:104550000B4A6D21F3E713F812200D4B1B6853F83B
:10456000220003681B6B9847291A33462046BDE892
:10457000704009B2184700BF24C3012048D8020880
:10458000FAE002088AD8020828C3012018E00208CD
:104590002CC3012008B58389012B05D9094B0A4A90
:1045A00041210A4827F0AAFA00F110038B6200F1BA
:1045B0002003CB6383895A1C828100EB8300416016
:1045C00008BD00BF8FDF02088CE00208C8DF0208C8
:1045D00070B50446406B0D4650B10368DB689847E0
:1045E00030B1606B2946BDE8704003689B6818478E
:1045F00070BD000000F56973994273B504460E461C
:104600000DD1114B00F26C450093162328466946E4
:10461000ADF8043010F04CFA284614F027FB04F5EE
:1046200079739E420DD1084B04F26C44009315231C
:1046300020466946ADF8043010F03AFA204614F0EE
:1046400015FB02B070BD00BF40CC020870B5044637
:104650000E460025A289ABB29A420CD904EB830323
:104660005868B04205D090F8373013B1002110F0EF
:1046700055FE0135EEE7206B50B10368DB689847C3
:1046800030B1206B3146BDE8704003689B68184725
:1046900070BD00F2FC40884208B505D113F026FA3F
:1046A000BDE8084000F0AABD08BD00F2B440884251
:1046B00008B505D113F01AFABDE8084000F0BEBDF8
:1046C00008BD00224FF0FF318260C0E90021704731
:1046D00010B504462622002127F099FA2046FDF75E
:1046E0002BFC012284F824200A4A002322604FF682
:1046F000FF72A36284F82C30E28522866286A2864D
:1047000084F8362084F8373084F83830E363204664
:1047100010BD00BF900E03082DE9F04F044600269F
:1047200025469BB015F04EF9D74BE66345F8403B64
:1047300004F16C0A2846FDF75FFC5046FDF75CFC6F
:1047400004F1980304F1C409184604F586780F9320
:10475000FDF752FC4846FEF771F840460CF0F0F8C1
:1047600004F5007318460593FEF768F804F5127314
:1047700018460693FEF762F8C44BC4F89062C4F87A
:10478000483204F5257318460793FEF757F804F5E9
:10479000377318460893FEF751F804F54973184625
:1047A0000993FEF74BF804F55B730E930E9AB84B22
:1047B000C4F880232422C4F86C33B64BC4F8842395
:1047C000C4F87C33C4F88C330E9B0122C4F89033B8
:1047D0002823C4F8943304F56973C4F88823C4F813
:1047E00098231846A4F87863C4F89C63C4F8A063BF
:1047F0000293FFF76DFF04F5797318460393FFF7F3
:1048000067FF04F2244318460A93FEF717F804F2F0
:104810006C4318460493FEF711F804F2B4431846AB
:104820000B9310F0ABFC04F2FC4318460C93FDF71D
:1048300083FBFF2384F829354FF0010384F82035EA
:10484000954B04F23457C4F8FC344FF0FF33262262
:10485000C4F8303531463846C4F8246584F82865F4
:10486000C4F82C65ADF8603027F0D1F93846FDF773
:1048700063FB8A4B0DF1680BC4F834353BF8083DF7
:104880003846A4F85A354FF0FF33594684F85C3562
:1048900010F032FB39460C980BF0C0FB04F5AC630A
:1048A00018460D93FDF7CAFF7D4B7E4AC4F8BC3510
:1048B000C4F8DC357C4BC4F8C425C4F8E4354FF4A7
:1048C000A0737A4A2846C4F8CC25794A0093C4F8E4
:1048D000D4254FF4F07332463146C4F8C045C4F8CD
:1048E000C865C4F8D045C4F8D865C4F8E045C4F834
:1048F000E865FDF790FF4FF07F43271D2946A3662B
:1049000038460BF08BFB4FF4A073324650460093B1
:1049100031464FF4F073FDF77EFF664B5146C4F805
:10492000943038460BF07AFB3223324600933146FE
:104930004FF4F0730F98FDF76EFF5F4B0F99C4F8BB
:10494000C03038460BF06AFB0F224846B721FDF70E
:104950000BFB5A4B10AD4946C4F8F4302846A4F876
:10496000F8600FF00BFE95E8070004F5807383E80C
:1049700007004923DFF860A148465946ADF8643086
:10498000CDF860A010F094F8494638460BF046FB8D
:1049900040465D22A821FDF7E7FA07234FF0050204
:1049A000ADF8583006234046ADF85C20ADF86030D5
:1049B00017AA5B4616A90CF01DF8C8234046CDE99E
:1049C00000631322334618210BF035FF0A224046BC
:1049D00031460BF0EEFD404603210BF0B2FDDFF84F
:1049E000FC90414638460BF019FB6922412105989D
:1049F000FDF7BAFA05992846C4F83092A4F8346253
:104A00000FF0BCFD95E8070004F50F7383E807007D
:104A1000482359460598ADF86430CDF860A010F0F1
:104A200047F8059938460BF0F9FA142369220093E8
:104A30004FF4CD711C230698FDF7EDFE1F4BA4F833
:104A40007C62C4F87832D4F848320699D3F88430BE
:104A50002846984795E8070004F5217383E8070086
:104A6000174B04F5B5681B682BB96021154B164A26
:104A7000164827F043F8164B1B88462B30D8154BA9
:104A8000114A6121F4E700BF60E0020888DE0208F5
:104A900030DF020818DF020860D30208B00D0308F7
:104AA00064DF0208F5450008AB4600087CDF020819
:104AB000934600082A2120FF1B1615FF7BC5F6FF31
:104AC00024C3012048D8020835E102088AD8020828
:104AD00028C3012018E0020840CC0208C5C5CBFF5E
:104AE000C74B4621186802F09FFBC64A03460A21BD
:104AF000404616F090FC4723C4F890825946069829
:104B0000ADF86430CDF860A00FF0D2FF06993846BA
:104B10000BF084FAA22207982421FDF725FA0799C1
:104B20002846C4F8C492A4F8C8620FF027FD95E89F
:104B3000070004F5347383E80700452359460798B6
:104B4000ADF86430CDF860A00FF0B2FF0799384699
:104B50000BF064FAA222089840F20D11FDF704FA56
:104B600008992846C4F80C93A4F810630FF006FDCA
:104B700095E8070004F5467383E807004423594687
:104B80000898ADF86430CDF860A00FF091FF089957
:104B900038460BF043FAA22209984FF4C971FDF789
:104BA000E3F909992846C4F85493A4F858630FF020
:104BB000E5FC95E8070004F5587383E807004323F4
:104BC00059460998ADF86430CDF860A00FF070FF39
:104BD000099938460BF022FA04F2BC53C4F89C330E
:104BE0000298A022ED21FDF7BFF94FF010034FF01E
:104BF00011024FF012014FF0130817A8ADF854300E
:104C0000034616A8ADF85820024615A8ADF85C106A
:104C1000CDF800B001460298ADF8608010F0DDFAE2
:104C20000298012110F07AFB02990E9884F8DC6357
:104C3000FFF7B0FC029938460BF0F0F90398A02278
:104C40004FF4B971FDF790F94FF010034FF01102D6
:104C50004FF01201ADF85430ADF8582017AB16AA3A
:104C6000ADF85C10039815A9CDF800B0ADF86080E0
:104C700010F0B3FA3146039810F050FB03990E98E8
:104C800084F81C64FFF786FC039938460BF0C6F9DC
:104C900041220A984021FDF767F90A992846C4F88D
:104CA0005494A4F858640FF069FC95E8070004F5E3
:104CB0008C6383E80700422359460A98ADF86430B4
:104CC000CDF860A00FF0F4FE0A9938460BF0A6F973
:104CD0002723C9220093049840F2B7131521FDF74A
:104CE0009AFD4FF005030499A4F8A0342846C4F8AF
:104CF0009C940FF043FC95E807004FF0010304F586
:104D0000956888E8070084F8A534049928460FF0D0
:104D100035FC95E80700412388E8070059460498C8
:104D2000ADF86430CDF860A00FF0C2FE04993846AB
:104D30000BF074F90B98F0229221FDF715F94FF062
:104D400001035A4617A90B98ADF86030ADF85C60C6
:104D50000FF00BFF40230B98A4F8EC34FDF7F8FF9D
:104D60004FF0FF33C4F8F034C4F8F43404F2DC53E9
:104D7000C4F8DC340B9938460BF050F90E23ADF82B
:104D80005C300D235A4617A90C98ADF86030FDF73A
:104D9000F8F804F2CC53C4F82C35232332460093A0
:104DA00031460C98C4F83865FDF735FD0C99384646
:104DB0000BF034F94FF49A7231460D98FDF7D4F8A0
:104DC0000D992846C4F89095A4F894650FF0D6FB89
:104DD00095E8070004F29C5383E807003E235946F8
:104DE0000D98ADF86430CDF860A00FF061FE384644
:104DF0000D990BF013F920461BB0BDE8F08F00BFF2
:104E000030C301208CDF02087047704770470346AB
:104E100030B4C56844686A10ED0704EB02009B6873
:104E200048BFA25830BC48BFD358184743682BB17D
:104E300083682BB9C06800F00100704718467047BE
:104E40000120704710B50446102125F0CFFD204603
:104E500010BD10B504464FF4E47125F0C7FD20469F
:104E600010BD00F58670884208B505D112F03EFEEF
:104E7000BDE8084000F0F2B908BD00002DE9F04F90
:104E80000446002526468DB014F09CFD7A4BE56360
:104E900046F8403B3046FDF7AFF804F16C03184686
:104EA0000293FDF7A9F804F1980304F1C40A184627
:104EB00004F5867B0393FDF79FF85046FDF7BEFC93
:104EC0005846FDF739F8FF2384F8393101234FF0B4
:104ED000FF3984F83031694B04F5A2772622C4F8F3
:104EE0000C312946C4F84091C4F8345184F8385143
:104EF000C4F83C513846ADF8289026F088FE384674
:104F0000FDF71AF85E4B0DF13008C4F8443138F85B
:104F1000083D84F86C91A4F86A31414638460FF098
:104F2000EBFF04F5B879394658460BF077F8484658
:104F3000FDF784FC534B2A46C4F8B831524B29463E
:104F4000C4F8C0314FF4A07330460093C4F8BC419C
:104F5000C4F8C4514FF4F073FDF75DFC4FF07F438C
:104F6000271DA366314638460BF058F84FF4A0735E
:104F70002A460093294602984FF4F073FDF74BFC44
:104F8000424B0299C4F8943038460BF047F832236C
:104F90002A460093294603984FF4F073FDF73BFC33
:104FA0003B4B0399C4F8C03038460BF037F80F225A
:104FB0005046B721FCF7D8FF364B04AEC4F8F430A6
:104FC00051463046A4F8F8500FF0D8FA96E807009A
:104FD00004F5807383E807002F4B41460A932F2383
:104FE0005046ADF82C300FF063FD514638460BF0BB
:104FF00015F80E23ADF824300D23424609A9584672
:10500000ADF82830FCF7BDFF04F5DC73C4F83C3183
:1050100023232A46009329465846C4F84851FDF7F1
:10502000FAFB594638460AF0F9FF4FF49A722946BE
:105030004846FCF799FF194B4946C4F8A031304661
:10504000A4F8A4510FF09AFA96E8070004F5D67375
:1050500083E80700104B41460A9330234846ADF8D9
:105060002C300FF025FD384649460AF0D7FF204680
:105070000DB0BDE8F08F00BF90E1020860D30208D8
:10508000B00D030878E10208634E00082A2120FFD2
:105090001B1615FF7BC5F6FF40CC0208C5C5CBFF2C
:1050A0007047704770474160704770470123037233
:1050B000704770477047034610B4C4684168621077
:1050C000E40701EB02009B6848BF8A585DF8044B77
:1050D00048BFD358184743682BB183682BB9C068C1
:1050E00000F001007047184670470120704710B566
:1050F00004460C2125F07AFC204610BD10B504466C
:105100004FF4AE7125F072FC204610BD10B5044678
:10511000102125F06BFC204610BD10B512F0E6FC06
:10512000BDE810400368DB6B18470000044B1B68A8
:1051300093F858200AB1D86C00B99868704700BF3E
:10514000CCC20120F8B50446174600250E4612F0E1
:10515000D9FD164BC4F83C511C60154BC4F84051A6
:105160002360144BC4F84851C4F84431124BC4F8BE
:105170004C511868C4F85051C4F85471C4F85861BF
:10518000036829469B689847284602F013F8FFF702
:10519000CDFF1DF004FAFFF7C9FF1DF077FAFFF706
:1051A000C5FF1DF07FFA2046F8BD00BF20C30120D7
:1051B000DCE10208C4E10208CCC20120064BC0F8C1
:1051C0004801C0F84C310023C0F8503100F5A273FB
:1051D000C0F84031704700BF65540008064BC0F866
:1051E0004801C0F84C310023C0F8503100F5A273DB
:1051F000C0F84031704700BFCD550008064BC0F8DD
:105200004801C0F84C310023C0F8503100F5A273BA
:10521000C0F84031704700BF35570008064BC0F852
:105220004801C0F84C310023C0F8503100F5A2739A
:10523000C0F84031704700BF9D580008064BC0F8C9
:105240004801C0F84C310023C0F8503100F5A2737A
:10525000C0F84031704700BF055A0008064BC0F83F
:105260004801C0F84C310023C0F8503100F5A2735A
:10527000C0F84031704700BF6D5B0008064BC0F8B6
:105280004801C0F84C310023C0F8503100F5A2733A
:10529000C0F84031704700BFD55C0008064BC0F82D
:1052A0004801C0F84C310023C0F8503100F5A2731A
:1052B000C0F84031704700BF3D5E0008064BC0F8A3
:1052C0004801C0F84C310023C0F8503100F5A273FA
:1052D000C0F84031704700BFA55F0008064BC0F81A
:1052E0004801C0F84C310023C0F8503100F5A273DA
:1052F000C0F84031704700BF0D610008064BC0F890
:105300004801C0F84C310023C0F8503100F5A273B9
:10531000C0F84031704700BF7162000803685B6AE3
:10532000184700002DE9F047074690689946036842
:1053300088461B6A1546DDF820A0984740F21343C3
:10534000984205D8A321414B414A424826F0D6FB5A
:10535000686803681B6A98470F2803D83E4B3C4A8D
:10536000A421F2E7E86803681B6A98470B2803D872
:105370003A4B374AA521E8E712F0B8FB043012F0A7
:10538000F3FBD9F8000010B10368DB689847D9F83F
:10539000000010B103681B689847386810B10368B3
:1053A0005B699847D8F8000010B103685B689847BC
:1053B000386810B103681B689847D8F8000010B12E
:1053C00003689B6898470021E868FFF7A7FF044639
:1053D00020B1002343600372214B0360A8680021C1
:1053E00003685B6A9847064608B1FCF7AFFC68683B
:1053F000002103685B6A9847054610B13146FCF707
:105400007FFCC9F80040C8F800503E60E5B12B1D94
:10541000CAF80030C5F808A03368F5633046DB6889
:1054200098472B6828461B6898472146304614F059
:1054300075FC236820461B699847236820465B69F2
:1054400098472846BDE8F0872B46E1E74CE2020882
:10545000BBEE0208DAE202081BE30208BEE3020820
:1054600030E2020807B5D0F8583100F59E7100937C
:10547000D0F85421034B0448FFF754FF03B05DF804
:1054800004FB00BF14C3012010C301202DE9F04725
:10549000074690689946036888461B6A1546DDF8FA
:1054A00020A09847B0F52D7F05D2A321414B424A59
:1054B000424826F023FB686803681B6A98470F2858
:1054C00003D83F4B3C4AA421F2E7E86803681B6A13
:1054D00098470B2803D83B4B374AA521E8E712F041
:1054E00005FB043012F040FBD9F8000010B103684E
:1054F000DB689847D9F8000010B103681B6898472B
:10550000386810B103685B699847D8F8000010B19B
:1055100003685B689847386810B103681B68984750
:10552000D8F8000010B103689B6898470021E8682C
:10553000FFF7F4FE044620B1002343600372224BC0
:105540000360A868002103685B6A9847064608B1B3
:10555000FBF790FF6868002103685B6A984705467F
:1055600010B13146FBF7A0FFC9F80040C8F8005061
:105570003E60E5B12B1DCAF80030C5F808A03368BD
:10558000F5633046DB6898472B6828461B689847C8
:105590002146304614F0C2FB236820461B69984719
:1055A000236820465B6998472846BDE8F0872B466C
:1055B000E1E700BF4CE2020899EB0208DAE20208D8
:1055C0001BE30208BEE3020830E2020807B5D0F888
:1055D000583100F59E710093D0F85421034B0448D4
:1055E000FFF754FF03B05DF804FB00BF14C30120B4
:1055F00010C301202DE9F0470746906899460368DB
:1056000088461B6A1546DDF820A0984742F2A3138E
:10561000984205D8A321414B414A424826F06EFAF0
:10562000686803681B6A98470F2803D83E4B3C4ABA
:10563000A421F2E7E86803681B6A98470B2803D89F
:105640003A4B374AA521E8E712F050FA043012F03D
:105650008BFAD9F8000010B10368DB689847D9F8D5
:10566000000010B103681B689847386810B10368E0
:105670005B699847D8F8000010B103685B689847E9
:10568000386810B103681B689847D8F8000010B15B
:1056900003689B6898470021E868FFF73FFE0446CF
:1056A00020B1002343600372214B0360A8680021EE
:1056B00003685B6A9847064608B1FCF70DF868680E
:1056C000002103685B6A9847054610B13146FCF734
:1056D0007DF8C9F80040C8F800503E60E5B12B1DC8
:1056E000CAF80030C5F808A03368F5633046DB68B7
:1056F00098472B6828461B6898472146304614F087
:105700000DFB236820461B699847236820465B6988
:1057100098472846BDE8F0872B46E1E74CE20208AF
:105720008FEA0208DAE202081BE30208BEE302087D
:1057300030E2020807B5D0F8583100F59E710093A9
:10574000D0F85421034B0448FFF754FF03B05DF831
:1057500004FB00BF14C3012010C301202DE9F04752
:10576000074690689946036888461B6A1546DDF827
:1057700020A0984740F21B63984205D8A321414BD3
:10578000414A424826F0BAF9686803681B6A98479C
:105790000F2803D83E4B3C4AA421F2E7E86803688F
:1057A0001B6A98470B2803D83A4B374AA521E8E7EC
:1057B00012F09CF9043012F0D7F9D9F8000010B1BA
:1057C0000368DB689847D9F8000010B103681B68CC
:1057D0009847386810B103685B699847D8F80000AB
:1057E00010B103685B689847386810B103681B689C
:1057F0009847D8F8000010B103689B6898470021CB
:10580000E868FFF78BFD044620B100234360037274
:10581000214B0360A868002103685B6A984706462D
:1058200008B1FCF7A3F86868002103685B6A984731
:10583000054610B13146FCF713F9C9F80040C8F825
:1058400000503E60E5B12B1DCAF80030C5F808A035
:105850003368F5633046DB6898472B6828461B6839
:1058600098472146304614F059FA236820461B69B0
:105870009847236820465B6998472846BDE8F0872B
:105880002B46E1E74CE2020877E70208DAE2020879
:105890001BE30208BEE3020830E2020807B5D0F8B5
:1058A000583100F59E710093D0F85421034B044801
:1058B000FFF754FF03B05DF804FB00BF14C30120E1
:1058C00010C301202DE9F047074690689946036808
:1058D00088461B6A1546DDF820A09847B0F5FB5FA7
:1058E00005D2A321414B424A424826F007F9686895
:1058F00003681B6A98470F2803D83F4B3C4AA421F2
:10590000F2E7E86803681B6A98470B2803D83B4B0B
:10591000374AA521E8E712F0E9F8043012F024F93B
:10592000D9F8000010B10368DB689847D9F8000087
:1059300010B103681B689847386810B103685B6949
:105940009847D8F8000010B103685B68984738683A
:1059500010B103681B689847D8F8000010B10368BD
:105960009B6898470021E868FFF7D8FC044620B1FF
:10597000002343600372224B0360A8680021036880
:105980005B6A9847064608B1FBF746FF6868002146
:1059900003685B6A9847054610B13146FBF798FFEC
:1059A000C9F80040C8F800503E60E5B12B1DCAF8A8
:1059B0000030C5F808A03368F5633046DB689847C7
:1059C0002B6828461B6898472146304614F0A6F9F4
:1059D000236820461B699847236820465B699847DF
:1059E0002846BDE8F0872B46E1E700BF4CE20208FD
:1059F00061E40208DAE202081BE30208BEE30208DF
:105A000030E2020807B5D0F8583100F59E710093D6
:105A1000D0F85421034B0448FFF754FF03B05DF85E
:105A200004FB00BF14C3012010C301202DE9F0477F
:105A3000074690689946036888461B6A1546DDF854
:105A400020A0984742F20723984205D8A321414B52
:105A5000414A424826F052F8686803681B6A984732
:105A60000F2803D83E4B3C4AA421F2E7E8680368BC
:105A70001B6A98470B2803D83A4B374AA521E8E719
:105A800012F034F8043012F06FF8D9F8000010B1B9
:105A90000368DB689847D9F8000010B103681B68F9
:105AA0009847386810B103685B699847D8F80000D8
:105AB00010B103685B689847386810B103681B68C9
:105AC0009847D8F8000010B103689B6898470021F8
:105AD000E868FFF723FC044620B10023436003720B
